{
  "contractName": "ItemManager",
  "abi": [
    {
      "anonymous": false,
      "inputs": [
        {
          "indexed": false,
          "internalType": "uint256",
          "name": "_itemIndex",
          "type": "uint256"
        },
        {
          "indexed": false,
          "internalType": "uint256",
          "name": "_step",
          "type": "uint256"
        },
        {
          "indexed": false,
          "internalType": "address",
          "name": "_address",
          "type": "address"
        }
      ],
      "name": "SupplyChainStep",
      "type": "event"
    },
    {
      "inputs": [],
      "name": "_owner",
      "outputs": [
        {
          "internalType": "address",
          "name": "",
          "type": "address"
        }
      ],
      "stateMutability": "view",
      "type": "function",
      "constant": true
    },
    {
      "inputs": [],
      "name": "isOwner",
      "outputs": [
        {
          "internalType": "bool",
          "name": "",
          "type": "bool"
        }
      ],
      "stateMutability": "view",
      "type": "function",
      "constant": true
    },
    {
      "inputs": [
        {
          "internalType": "uint256",
          "name": "",
          "type": "uint256"
        }
      ],
      "name": "items",
      "outputs": [
        {
          "internalType": "enum ItemManager.SupplyChainSteps",
          "name": "_step",
          "type": "uint8"
        },
        {
          "internalType": "string",
          "name": "_identifier",
          "type": "string"
        },
        {
          "internalType": "contract Item",
          "name": "_item",
          "type": "address"
        }
      ],
      "stateMutability": "view",
      "type": "function",
      "constant": true
    },
    {
      "inputs": [
        {
          "internalType": "string",
          "name": "_identifier",
          "type": "string"
        },
        {
          "internalType": "uint256",
          "name": "_priceInWei",
          "type": "uint256"
        }
      ],
      "name": "createItem",
      "outputs": [],
      "stateMutability": "nonpayable",
      "type": "function"
    },
    {
      "inputs": [
        {
          "internalType": "uint256",
          "name": "_index",
          "type": "uint256"
        }
      ],
      "name": "triggerPayment",
      "outputs": [],
      "stateMutability": "payable",
      "type": "function",
      "payable": true
    },
    {
      "inputs": [
        {
          "internalType": "uint256",
          "name": "_index",
          "type": "uint256"
        }
      ],
      "name": "triggerDelivery",
      "outputs": [],
      "stateMutability": "nonpayable",
      "type": "function"
    }
  ],
  "bytecode": "0x608060405234801561001057600080fd5b50336000806101000a81548173ffffffffffffffffffffffffffffffffffffffff021916908373ffffffffffffffffffffffffffffffffffffffff160217905550611a92806100606000396000f3fe6080604052600436106200005c5760003560e01c8063800fb83f14620000615780638c55174214620000815780638f32d59b14620000af578063b2bdfa7b14620000df578063bfb231d2146200010f578063cd31831e1462000155575b600080fd5b6200007f600480360381019062000079919062000a67565b62000183565b005b3480156200008e57600080fd5b50620000ad6004803603810190620000a7919062000bfb565b62000432565b005b348015620000bc57600080fd5b50620000c762000623565b604051620000d6919062000c7e565b60405180910390f35b348015620000ec57600080fd5b50620000f76200067a565b60405162000106919062000ce0565b60405180910390f35b3480156200011c57600080fd5b506200013b600480360381019062000135919062000a67565b6200069e565b6040516200014c9392919062000e7b565b60405180910390f35b3480156200016257600080fd5b506200018160048036038101906200017b919062000a67565b62000785565b005b60006001600083815260200190815260200160002060020160009054906101000a900473ffffffffffffffffffffffffffffffffffffffff1690503373ffffffffffffffffffffffffffffffffffffffff168173ffffffffffffffffffffffffffffffffffffffff16146200022f576040517f08c379a0000000000000000000000000000000000000000000000000000000008152600401620002269062000f35565b60405180910390fd5b348173ffffffffffffffffffffffffffffffffffffffff16633c8da5886040518163ffffffff1660e01b8152600401602060405180830381865afa1580156200027c573d6000803e3d6000fd5b505050506040513d601f19601f82011682018060405250810190620002a2919062000f6e565b14620002e5576040517f08c379a0000000000000000000000000000000000000000000000000000000008152600401620002dc9062000ff0565b60405180910390fd5b60006002811115620002fc57620002fb62000cfd565b5b6001600084815260200190815260200160002060000160009054906101000a900460ff16600281111562000335576200033462000cfd565b5b1462000378576040517f08c379a00000000000000000000000000000000000000000000000000000000081526004016200036f9062001088565b60405180910390fd5b600180600084815260200190815260200160002060000160006101000a81548160ff02191690836002811115620003b457620003b362000cfd565b5b02179055507fa4035636e99f06b7651a604c1019fa4e8779fe68ef27eeb74dff2de348f6199b826001600085815260200190815260200160002060000160009054906101000a900460ff16600281111562000414576200041362000cfd565b5b836040516200042693929190620010bb565b60405180910390a15050565b6200043c62000623565b6200047e576040517f08c379a0000000000000000000000000000000000000000000000000000000008152600401620004759062001148565b60405180910390fd5b6000308260025460405162000493906200095a565b620004a193929190620011a3565b604051809103906000f080158015620004be573d6000803e3d6000fd5b5090508060016000600254815260200190815260200160002060020160006101000a81548173ffffffffffffffffffffffffffffffffffffffff021916908373ffffffffffffffffffffffffffffffffffffffff160217905550600060016000600254815260200190815260200160002060000160006101000a81548160ff0219169083600281111562000557576200055662000cfd565b5b02179055508260016000600254815260200190815260200160002060010190805190602001906200058a92919062000968565b507fa4035636e99f06b7651a604c1019fa4e8779fe68ef27eeb74dff2de348f6199b60025460016000600254815260200190815260200160002060000160009054906101000a900460ff166002811115620005ea57620005e962000cfd565b5b83604051620005fc93929190620010bb565b60405180910390a16002600081548092919062000619906200120f565b9190505550505050565b60008060009054906101000a900473ffffffffffffffffffffffffffffffffffffffff1673ffffffffffffffffffffffffffffffffffffffff163373ffffffffffffffffffffffffffffffffffffffff1614905090565b60008054906101000a900473ffffffffffffffffffffffffffffffffffffffff1681565b60016020528060005260406000206000915090508060000160009054906101000a900460ff1690806001018054620006d6906200128c565b80601f016020809104026020016040519081016040528092919081815260200182805462000704906200128c565b8015620007555780601f10620007295761010080835404028352916020019162000755565b820191906000526020600020905b8154815290600101906020018083116200073757829003601f168201915b5050505050908060020160009054906101000a900473ffffffffffffffffffffffffffffffffffffffff16905083565b6200078f62000623565b620007d1576040517f08c379a0000000000000000000000000000000000000000000000000000000008152600401620007c89062001148565b60405180910390fd5b60006001600083815260200190815260200160002060020160009054906101000a900473ffffffffffffffffffffffffffffffffffffffff1690506001600281111562000823576200082262000cfd565b5b6001600084815260200190815260200160002060000160009054906101000a900460ff1660028111156200085c576200085b62000cfd565b5b146200089f576040517f08c379a0000000000000000000000000000000000000000000000000000000008152600401620008969062001088565b60405180910390fd5b60026001600084815260200190815260200160002060000160006101000a81548160ff02191690836002811115620008dc57620008db62000cfd565b5b02179055507fa4035636e99f06b7651a604c1019fa4e8779fe68ef27eeb74dff2de348f6199b826001600085815260200190815260200160002060000160009054906101000a900460ff1660028111156200093c576200093b62000cfd565b5b836040516200094e93929190620010bb565b60405180910390a15050565b61079a80620012c383390190565b82805462000976906200128c565b90600052602060002090601f0160209004810192826200099a5760008555620009e6565b82601f10620009b557805160ff1916838001178555620009e6565b82800160010185558215620009e6579182015b82811115620009e5578251825591602001919060010190620009c8565b5b509050620009f59190620009f9565b5090565b5b8082111562000a14576000816000905550600101620009fa565b5090565b6000604051905090565b600080fd5b600080fd5b6000819050919050565b62000a418162000a2c565b811462000a4d57600080fd5b50565b60008135905062000a618162000a36565b92915050565b60006020828403121562000a805762000a7f62000a22565b5b600062000a908482850162000a50565b91505092915050565b600080fd5b600080fd5b6000601f19601f8301169050919050565b7f4e487b7100000000000000000000000000000000000000000000000000000000600052604160045260246000fd5b62000aee8262000aa3565b810181811067ffffffffffffffff8211171562000b105762000b0f62000ab4565b5b80604052505050565b600062000b2562000a18565b905062000b33828262000ae3565b919050565b600067ffffffffffffffff82111562000b565762000b5562000ab4565b5b62000b618262000aa3565b9050602081019050919050565b82818337600083830152505050565b600062000b9462000b8e8462000b38565b62000b19565b90508281526020810184848401111562000bb35762000bb262000a9e565b5b62000bc084828562000b6e565b509392505050565b600082601f83011262000be05762000bdf62000a99565b5b813562000bf284826020860162000b7d565b91505092915050565b6000806040838503121562000c155762000c1462000a22565b5b600083013567ffffffffffffffff81111562000c365762000c3562000a27565b5b62000c448582860162000bc8565b925050602062000c578582860162000a50565b9150509250929050565b60008115159050919050565b62000c788162000c61565b82525050565b600060208201905062000c95600083018462000c6d565b92915050565b600073ffffffffffffffffffffffffffffffffffffffff82169050919050565b600062000cc88262000c9b565b9050919050565b62000cda8162000cbb565b82525050565b600060208201905062000cf7600083018462000ccf565b92915050565b7f4e487b7100000000000000000000000000000000000000000000000000000000600052602160045260246000fd5b6003811062000d405762000d3f62000cfd565b5b50565b600081905062000d538262000d2c565b919050565b600062000d658262000d43565b9050919050565b62000d778162000d58565b82525050565b600081519050919050565b600082825260208201905092915050565b60005b8381101562000db957808201518184015260208101905062000d9c565b8381111562000dc9576000848401525b50505050565b600062000ddc8262000d7d565b62000de8818562000d88565b935062000dfa81856020860162000d99565b62000e058162000aa3565b840191505092915050565b6000819050919050565b600062000e3b62000e3562000e2f8462000c9b565b62000e10565b62000c9b565b9050919050565b600062000e4f8262000e1a565b9050919050565b600062000e638262000e42565b9050919050565b62000e758162000e56565b82525050565b600060608201905062000e92600083018662000d6c565b818103602083015262000ea6818562000dcf565b905062000eb7604083018462000e6a565b949350505050565b7f4974656d7320617265206f6e6c7920616c6c6f77656420746f2075706461746560008201527f207468656d73656c766573210000000000000000000000000000000000000000602082015250565b600062000f1d602c8362000d88565b915062000f2a8262000ebf565b604082019050919050565b6000602082019050818103600083015262000f508162000f0e565b9050919050565b60008151905062000f688162000a36565b92915050565b60006020828403121562000f875762000f8662000a22565b5b600062000f978482850162000f57565b91505092915050565b7f4e6f742070616964207965742100000000000000000000000000000000000000600082015250565b600062000fd8600d8362000d88565b915062000fe58262000fa0565b602082019050919050565b600060208201905081810360008301526200100b8162000fc9565b9050919050565b7f4974656d20697320616c7265616479206675727468657220696e20746865207360008201527f7570706c7920636861696e000000000000000000000000000000000000000000602082015250565b600062001070602b8362000d88565b91506200107d8262001012565b604082019050919050565b60006020820190508181036000830152620010a38162001061565b9050919050565b620010b58162000a2c565b82525050565b6000606082019050620010d26000830186620010aa565b620010e16020830185620010aa565b620010f0604083018462000ccf565b949350505050565b7f4f776e61626c653a2063616c6c6572206973206e6f7420746865206f776e6572600082015250565b60006200113060208362000d88565b91506200113d82620010f8565b602082019050919050565b60006020820190508181036000830152620011638162001121565b9050919050565b6000620011778262000e1a565b9050919050565b60006200118b826200116a565b9050919050565b6200119d816200117e565b82525050565b6000606082019050620011ba600083018662001192565b620011c96020830185620010aa565b620011d86040830184620010aa565b949350505050565b7f4e487b7100000000000000000000000000000000000000000000000000000000600052601160045260246000fd5b60006200121c8262000a2c565b91507fffffffffffffffffffffffffffffffffffffffffffffffffffffffffffffffff821415620012525762001251620011e0565b5b600182019050919050565b7f4e487b7100000000000000000000000000000000000000000000000000000000600052602260045260246000fd5b60006002820490506001821680620012a557607f821691505b60208210811415620012bc57620012bb6200125d565b5b5091905056fe608060405234801561001057600080fd5b5060405161079a38038061079a83398181016040528101906100329190610134565b816000819055508060028190555082600360006101000a81548173ffffffffffffffffffffffffffffffffffffffff021916908373ffffffffffffffffffffffffffffffffffffffff160217905550505050610187565b600080fd5b600073ffffffffffffffffffffffffffffffffffffffff82169050919050565b60006100b98261008e565b9050919050565b60006100cb826100ae565b9050919050565b6100db816100c0565b81146100e657600080fd5b50565b6000815190506100f8816100d2565b92915050565b6000819050919050565b610111816100fe565b811461011c57600080fd5b50565b60008151905061012e81610108565b92915050565b60008060006060848603121561014d5761014c610089565b5b600061015b868287016100e9565b935050602061016c8682870161011f565b925050604061017d8682870161011f565b9150509250925092565b610604806101966000396000f3fe6080604052600436106100385760003560e01c80632986c0e5146102505780633c8da5881461027b57806383d12eef146102a657610241565b36610241576000543414610081576040517f08c379a000000000000000000000000000000000000000000000000000000000815260040161007890610366565b60405180910390fd5b6000600154146100c6576040517f08c379a00000000000000000000000000000000000000000000000000000000081526004016100bd906103d2565b60405180910390fd5b34600160008282546100d8919061042b565b925050819055506000600360009054906101000a900473ffffffffffffffffffffffffffffffffffffffff1673ffffffffffffffffffffffffffffffffffffffff163460025460405160240161012e9190610490565b6040516020818303038152906040527f800fb83f000000000000000000000000000000000000000000000000000000007bffffffffffffffffffffffffffffffffffffffffffffffffffffffff19166020820180517bffffffffffffffffffffffffffffffffffffffffffffffffffffffff83818316178352505050506040516101b89190610525565b60006040518083038185875af1925050503d80600081146101f5576040519150601f19603f3d011682016040523d82523d6000602084013e6101fa565b606091505b505090508061023e576040517f08c379a0000000000000000000000000000000000000000000000000000000008152600401610235906105ae565b60405180910390fd5b50005b34801561024d57600080fd5b50005b34801561025c57600080fd5b506102656102d1565b6040516102729190610490565b60405180910390f35b34801561028757600080fd5b506102906102d7565b60405161029d9190610490565b60405180910390f35b3480156102b257600080fd5b506102bb6102dd565b6040516102c89190610490565b60405180910390f35b60025481565b60005481565b60015481565b600082825260208201905092915050565b7f576520646f6e277420737570706f7274207061727469616c207061796d656e7460008201527f7300000000000000000000000000000000000000000000000000000000000000602082015250565b60006103506021836102e3565b915061035b826102f4565b604082019050919050565b6000602082019050818103600083015261037f81610343565b9050919050565b7f4974656d20697320616c72656164792070616964210000000000000000000000600082015250565b60006103bc6015836102e3565b91506103c782610386565b602082019050919050565b600060208201905081810360008301526103eb816103af565b9050919050565b6000819050919050565b7f4e487b7100000000000000000000000000000000000000000000000000000000600052601160045260246000fd5b6000610436826103f2565b9150610441836103f2565b9250827fffffffffffffffffffffffffffffffffffffffffffffffffffffffffffffffff03821115610476576104756103fc565b5b828201905092915050565b61048a816103f2565b82525050565b60006020820190506104a56000830184610481565b92915050565b600081519050919050565b600081905092915050565b60005b838110156104df5780820151818401526020810190506104c4565b838111156104ee576000848401525b50505050565b60006104ff826104ab565b61050981856104b6565b93506105198185602086016104c1565b80840191505092915050565b600061053182846104f4565b915081905092915050565b7f5061796d656e7420666f7277617264696e6720646964206e6f7420776f726b2c60008201527f2063616e63656c6c696e67000000000000000000000000000000000000000000602082015250565b6000610598602b836102e3565b91506105a38261053c565b604082019050919050565b600060208201905081810360008301526105c78161058b565b905091905056fea2646970667358221220c522977c92f32e79ada2ff6d56eba972c004de610cd03c2fd332eeeedeff3c3c64736f6c634300080b0033a264697066735822122043146ad5a7b7bae4fbdd6325e0a8e05c293805bc78f67c4c69e581ddda1b00ff64736f6c634300080b0033",
  "immutableReferences": {},
  "source": "// SPDX-License-Identifier: MIT\n\npragma solidity ^0.8.11;\n\nimport \"./Item.sol\";\nimport \"./Owned.sol\";\n\ncontract ItemManager is Owned {\n\n    enum SupplyChainSteps{\n        Created, \n        Paid, \n        Delivered\n    }\n\n    struct S_Item {\n        ItemManager.SupplyChainSteps _step;\n        string _identifier;\n        Item _item;\n    }\n    \n    mapping(uint => S_Item) public items;\n    \n    uint index;\n\n    event SupplyChainStep(uint _itemIndex, uint _step, address _address);\n\n    function createItem(string memory _identifier, uint _priceInWei) public onlyOwner {\n        Item item = new Item(this, _priceInWei, index);\n        items[index]._item = item;\n        items[index]._step = SupplyChainSteps.Created;\n        items[index]._identifier = _identifier;\n        emit SupplyChainStep(index, uint(items[index]._step), address(item));\n        index++;\n    }\n\n    function triggerPayment(uint _index) public payable {\n        Item item = items[_index]._item;\n        require(address(item) == msg.sender, \"Items are only allowed to update themselves!\");\n        require(item.priceInWei() == msg.value, \"Not paid yet!\");\n        require(items[_index]._step == SupplyChainSteps.Created, \"Item is already further in the supply chain\");\n        items[_index]._step = SupplyChainSteps.Paid;\n        emit SupplyChainStep(_index, uint(items[_index]._step), address(item));\n    }\n\n    function triggerDelivery(uint _index) public onlyOwner {\n        Item item = items[_index]._item;\n        require(items[_index]._step == SupplyChainSteps.Paid, \"Item is already further in the supply chain\");\n        items[_index]._step = SupplyChainSteps.Delivered;\n        emit SupplyChainStep(_index, uint(items[_index]._step), address(item));\n    }\n}\n",
  "sourcePath": "/home/juha/dev/web3/bootcamp/web3-supply-chain/contracts/ItemManager.sol",
  "compiler": {
    "name": "solc",
    "version": "0.8.11+commit.d7f03943.Emscripten.clang"
  },
  "schemaVersion": "3.4.4",
  "updatedAt": "2022-03-12T15:30:40.162Z",
  "networkType": "ethereum",
  "devdoc": {
    "kind": "dev",
    "methods": {
      "isOwner()": {
        "details": "Returns true if the caller is the current owner."
      }
    },
    "version": 1
  },
  "userdoc": {
    "kind": "user",
    "methods": {},
    "version": 1
  }
}